:100000000C94C5000C94ED000C94ED000C94ED00E4
:100010000C94ED000C94ED000C94ED000C94ED00AC
:100020000C94ED000C94ED000C94ED000C94ED009C
:100030000C94ED000C94ED000C94ED000C94ED008C
:100040000C94D40A0C94ED000C94440B0C941E0BED
:100050000C94ED000C94ED000C94ED000C94ED006C
:100060000C94760B0C94ED005554430050535400FF
:10007000504454004D5354004D44540048535400D0
:1000800048445400474D54004553540045445400DF
:10009000435354004344540041535400414B535480
:1000A00000414B44540041445400A6004CFFFFFF64
:1000B000A10020FEFFFF9C00E4FDFFFF980010FF61
:1000C000FFFF9400D4FEFFFF900098FEFFFF8C001E
:1000D00010FFFFFF8800D4FEFFFF84000000000037
:1000E0008000E4FDFFFF7C00A8FDFFFF780098FE84
:1000F000FFFF74005CFEFFFF70005CFEFFFF6C0002
:1001000020FEFFFF6800000000001F1C1F1E1F1EB6
:100110001F1F1E1F1E1F68683A6D6D3A7373004DD6
:100120004D4D2044442059595959000000000024E5
:100130000027002A0000000000250028002B0000F6
:100140000000002300260029000404040404040421
:100150000402020202020203030303030301020476
:100160000810204080010204081020010204081039
:100170002000000008000201000003040700000046
:10018000000000000000950CEE1111241FBECFEFFF
:10019000D8E0DEBFCDBF23E0A4EFB1E001C01D92E7
:1001A000A03FB207E1F711E0A0E0B1E0E2EDF9E233
:1001B00002C005900D92A43FB107D9F710E0C4EC3E
:1001C000D0E004C02197FE010E94C412C33CD107B5
:1001D000C9F70E946C0D0C94DC140C94000096E09E
:1001E000899FD0011124AD59BC4F90967C936E939A
:1001F0005F9791E091969C939197E091D003F09155
:10020000D1039091CF03992339F0309751F08111A8
:1002100008C080917F030994309719F05C968C9107
:10022000FACF0895CF92DF92EF92FF920F931F9330
:1002300096E0899FF0011124ED59FC4F11A2278D02
:1002400030A12130310551F178F02230310509F427
:1002500051C02330310509F452C01F910F91FF9016
:10026000EF90DF90CF9008956623B9F361E070E0DE
:100270000E94EF002FB7F894809166029091670278
:10028000A0916802B09169022FBF8093BB03909345
:10029000BC03A093BD03B093BE03DFCF9FB7F89418
:1002A000C0906602D0906702E0906802F090690208
:1002B0009FBF0091BB031091BC032091BD033091FF
:1002C000BE03C01AD10AE20AF30A0091CD031091CD
:1002D000CE0330E020E00C151D052E053F0550F43F
:1002E00062E070E01F910F91FF90EF90DF90CF9050
:1002F0000C94EF006111B1CF63E070E0F3CF70E0D8
:1003000060E0F0CF0F931F93CF93DF938C01DB015D
:100310001C929C0190E0F90141155105E1F1E901C0
:1003200089919E018823B9F16FEC680F6930D8F488
:100330002AE0808130ED380F3A30D8F49C91929FBA
:10034000902D11249C9390538191980F9C93415030
:10035000510991E071F7CF01801B910BDF91CF9193
:100360001F910F9108958033B1F64150510991E0EA
:10037000D2CF8E3281F49F012F5F3F4FBF01640FB8
:10038000751FF9012617370731F02F5F3F4F508156
:1003900050535A30B0F39111DECF90E080E0DECFC1
:1003A000833081F028F4813099F08230A9F00895EB
:1003B0008730A9F08830C9F08430B1F48091800092
:1003C0008F7D03C0809180008F7780938000089597
:1003D00084B58F7784BD089584B58F7DFBCF8091E0
:1003E000B0008F778093B00008958091B0008F7D2A
:1003F000F9CFCF93DF93282F30E0F901EF58FE4F6C
:100400008491F901E35AFE4FD491F901E75BFE4F65
:10041000C491CC23A1F081110E94D001EC2FF0E017
:10042000EE0FFF1FE15CFE4FA591B491EC91ED231F
:1004300081E090E009F480E0DF91CF91089580E0C1
:1004400090E0FACF1F93CF93DF93282F30E0F9018C
:10045000EF58FE4F8491F901E35AFE4FD491F90110
:10046000E75BFE4FC491CC23A9F0162F81110E94A7
:10047000D001EC2FF0E0EE0FFF1FEB5CFE4FA591DB
:10048000B4918FB7F894EC91111108C0D095DE2388
:10049000DC938FBFDF91CF911F910895DE2BF8CFB2
:1004A000CF93DF9390E0FC01E35AFE4F2491875BEA
:1004B0009E4FFC0184918823C9F090E0880F991F1A
:1004C000FC01E55DFE4FA591B491FC01EB5CFE4F94
:1004D000C591D49161110DC09FB7F8948C9120956E
:1004E00082238C938881282328839FBFDF91CF911B
:1004F0000895623051F49FB7F8943C91822F809513
:1005000083238C93E8812E2BEFCF8FB7F894EC9157
:100510002E2B2C938FBFEACF3FB7F89480916202C5
:1005200090916302A0916402B091650226B5A89BE8
:1005300005C02F3F19F00196A11DB11D3FBFBA2F75
:10054000A92F982F8827BC01CD01620F711D811D35
:10055000911D42E0660F771F881F991F4A95D1F7BA
:1005600008958F929F92AF92BF92CF92DF92EF92B7
:10057000FF924B015C010E948C026B017C010E9486
:100580008C026C197D098E099F09683E73408105B4
:100590009105A8F321E0821A9108A108B10888EE1C
:1005A000C80E83E0D81EE11CF11C81149104A10443
:1005B000B10429F7FF90EF90DF90CF90BF90AF90FC
:1005C0009F908F900895862F642F0C945002862F51
:1005D000642F0C942202862F0C94F901089508953B
:1005E000AF92BF92CF92DF92EF92FF920F931F9341
:1005F000CF93DF936C017B018B01040F151FEB017F
:100600005E01AE18BF08C017D10759F06991D60135
:10061000ED91FC910190F081E02DC6010995892BA7
:1006200079F7C501DF91CF911F910F91FF90EF9066
:10063000DF90CF90BF90AF900895FC01538D448D13
:10064000252F30E0842F90E0821B930B541710F07D
:10065000CF96089501970895FC01918D828D98178A
:1006600061F0A28DAE0FBF2FB11D5D968C91928D62
:100670009F5F9F73928F90E008958FEF9FEF089593
:10068000FC01918D828D981731F0828DE80FF11D5C
:10069000858D90E008958FEF9FEF0895FC01918D77
:1006A000228D892F90E0805C9F4F821B91098F7370
:1006B000992708958AEB92E00E944E0321E0892B4E
:1006C00009F420E0822F089580E090E0892B29F042
:1006D0000E945A0381110C9400000895FC01A48D1E
:1006E000A80FB92FB11DA35ABF4F2C91848D90E054
:1006F00001968F739927848FA689B7892C93A08937
:10070000B1898C91837080648C93938D848D9813C0
:1007100006C00288F389E02D80818F7D8083089553
:10072000EF92FF920F931F93CF93DF93EC0181E041
:10073000888F9B8D8C8D98131AC0E889F9898081E8
:1007400085FF15C09FB7F894EE89FF896083E8891B
:10075000F98980818370806480839FBF81E090E00D
:10076000DF91CF911F910F91FF90EF900895F62E9A
:100770000B8D10E00F5F1F4F0F731127E02E8C8D34
:100780008E110CC00FB607FCFACFE889F989808179
:1007900085FFF5CFCE010E946E03F1CFEB8DEC0FFC
:1007A000FD2FF11DE35AFF4FF0829FB7F8940B8F96
:1007B000EA89FB8980818062CFCFCF93DF93EC0100
:1007C000888D8823B9F0AA89BB89E889F9898C9139
:1007D00085FD03C0808186FD0DC00FB607FCF7CFF5
:1007E0008C9185FFF2CF808185FFEDCFCE010E94F5
:1007F0006E03E9CFDF91CF9108950895DC0150E0B9
:10080000EAE0F1E081E0861730F49491490F511D40
:100810008F5F3196F8CF633038F0CD018370992720
:10082000892B11F44F5F5F4F9D012D5F3F4F369530
:100830002795369527956DE671E0A69FC001A79F85
:10084000900DB69F900D11240197820F931F840F76
:10085000951F089520913502260F3327331F21322B
:100860003105ECF420919002FC0190E080E024300E
:1008700069F082E00895A09135022191AC014B5EB0
:100880005D4FA40FB52FB11D2C930196861798F3D9
:1008900080913502680F6093350280E0089581E011
:1008A00008951092900281E080938F0210926A0264
:1008B00061E082E10E94220261E083E10E94220263
:1008C000E9EBF0E080818E7F808380818D7F808363
:1008D00088E48093B80085E48093BC000895CF93AA
:1008E000DF9391E0909314028823B9F0C091B8008F
:1008F000D091BA008091BC008A7B8093BC0060E0FC
:1009000082E10E94220260E083E10E9422020E94B2
:100910005104D093BA00C093B800DF91CF910895ED
:10092000CF92DF92EF92FF920F931F93CF93DF93BB
:10093000D091B90281E0D13208F09CC0C091B802D8
:100940000E948C026B017C018091900281116CC02D
:1009500082E08093900281E080938F028FEF8093FA
:100960008E0210928D02D0938C02A8E9B2E0ECE6E0
:10097000F2E080E0D8138DC010926B0280916B0280
:10098000CC0FC82BC0936B0280916A02813009F0B2
:1009900084C010926A020E948C026B017C018091DB
:1009A0006B028093BB008091920290919302A09180
:1009B0009402B0919502892B8A2B8B2BA1F00E9477
:1009C0008C02009192021091930220919402309136
:1009D00095026C197D098E099F09061717072807CC
:1009E000390708F442C08091BC0083FDD8CF85EC64
:1009F0008093BC000E948C026B017C01809190026C
:100A0000823009F44CC080918E028F3F09F469C096
:100A100080918E02803209F466C080918E0280330C
:100A200009F463C084E026C0809192029091930201
:100A3000A0919402B0919502892B8A2B8B2B09F4FB
:100A400083CF0E948C020091920210919302209118
:100A50009402309195026C197D098E099F09061741
:100A600017072807390708F06FCF809191020E947D
:100A70006F0485E0109297021092B90210929602CC
:100A8000DF91CF911F910F91FF90EF90DF90CF906A
:100A900008959D9191938F5F6DCF85EEA9CF809141
:100AA000920290919302A0919402B0919502892BA9
:100AB0008A2B8B2B09F4A2CF0E948C020091920208
:100AC0001091930220919402309195026C197D0946
:100AD0008E099F09061717072807390708F08ECFD8
:100AE000C4CF80E0C7CF82E0C5CF83E0C3CF0895F5
:100AF000E0915D0280915C02E81730F4F0E0EC5088
:100B0000FE4F808190E008958FEF9FEF08959091C0
:100B10005D0280915C022FEF3FEF981748F4E92FB8
:100B2000F0E0EC50FE4F208130E09F5F90935D023B
:100B3000C901089580915C0290915D02891B990B17
:100B40000895CF92DF92EF92FF920F931F93CF936E
:100B5000DF937C01CB018A0120919602222389F048
:100B6000EB016B01C40ED51ECC15DD0569F0699152
:100B7000D701ED91FC910190F081E02DC70109951D
:100B8000F3CF642F0E942A04C801DF91CF911F91F7
:100B90000F91FF90EF90DF90CF900895CF93DF9368
:100BA0001F92CDB7DEB76983209196022223F9F018
:100BB0002091B902203258F021E030E0FC0133836B
:100BC000228390E080E00F90DF91CF910895809193
:100BD0009702E82FF0E0E856FD4F998190838F5FF0
:100BE000809397028093B90281E090E0ECCF61E0BE
:100BF000CE0101960E942A04F7CFCF93DF93EB0139
:100C0000FC01828591E0909396028093B802109245
:100C100097021092B902688187E593E00E94CE05A1
:100C200065E070E080E090E00E94B102698187E5B4
:100C300093E00E94CE0565E070E080E090E00E94C5
:100C4000B102DF91CF910C949004CF93DF9300D049
:100C50001F92CDB7DEB71B8290E899838A83BE01CD
:100C60006F5F7F4F87ED93E00E94FD050F900F901F
:100C70000F90DF91CF91089581E00E9425068BE3CC
:100C80009FE10197F1F70895CF93DF9300D01F9272
:100C9000CDB7DEB7611112C080681B8290E89983DE
:100CA0008A83BE016F5F7F4F87ED93E00E94FD0551
:100CB0000F900F900F90DF91CF910895806CEDCF42
:100CC000CF93DF9300D01F92CDB7DEB71B8220E415
:100CD00029836A83BE016F5F7F4F0E94FD0581E01B
:100CE00090E00F900F900F90DF91CF910895CF93E8
:100CF000C62F9091E20321E0209396029093B802D0
:100D0000109297021092B902682F87E593E00E9433
:100D1000CE056C2F87E593E00E94CE05CF910C9411
:100D2000900490E080E008954F925F926F927F92DE
:100D30008F929F92AF92BF92CF92DF92EF92FF92EB
:100D4000CF93DF93EC016A017B012CE3822E912C7F
:100D5000A12CB12CCB01BA01A50194010E94A212D1
:100D60006D83CA01B901A50194010E94A2126C838E
:100D7000C701B60120E13EE040E050E00E94A2122F
:100D8000CA01B90128E130E040E050E00E94A2121F
:100D90006B83C701B60120E831E541E050E00E94D5
:100DA000A212188263E9862E6EEF962EAA24AA94C8
:100DB000BA2C8881782F7370C12CD12C7601C39402
:100DC000772319F0C12CD12C7601260137019DE63D
:100DD000490E91E0591E611C711C2415350546050C
:100DE000570578F0240135014C185D086E087F081E
:100DF000730162012C0D3D1D4E1D5F1D8F5F8883A9
:100E0000D8CF81E089836981862F8150990BFC01BD
:100E1000E65FFE4FE491711103C0623009F4EF5FA9
:100E20008E2F90E0B0E0A0E0281739074A075B0753
:100E300038F0281B390B4A0B5B0B6F5F6983E3CFDC
:100E40002F5F2A83DF91CF91FF90EF90DF90CF90BB
:100E5000BF90AF909F908F907F906F905F904F90DA
:100E60000895FF920F931F93CF93DF938C01D62F9A
:100E7000F42EC0E06D2F6170F80180810E94220283
:100E800061E0F80181810E942202C73039F4FF201D
:100E900029F060E0F80180810E94500260E0F801D2
:100EA00081810E942202D695CF5FC83019F7DF9169
:100EB000CF911F910F91FF900895FC0101900020A8
:100EC000E9F73197AF01481B590BBC0187ED93E05F
:100ED0000C94F002FC0180819181009711F00C9438
:100EE000661308950F931F93CF93DF93EC018881CE
:100EF0009981009759F02A813B812617370730F0F6
:100F000081E0DF91CF911F910F9108958B016F5F69
:100F10007F4F0E94EF13009759F0998388831B83BA
:100F20000A832C813D81232B59F7FC011082E8CFE5
:100F300080E0E7CFEF92FF920F931F93CF93DF9361
:100F4000EC017B018A01BA010E9472072881398174
:100F5000811114C02115310519F0C9010E946613D1
:100F6000198218821D821C821B821A82CE01DF9197
:100F7000CF911F910F91FF90EF9008951D830C83E7
:100F8000B701C9010E94C614F1CFFB0101900020F6
:100F9000E9F73197AF01461B570B0C949A0761E0B4
:100FA00080E10E9422020E943C0660E080E00E94F4
:100FB00044068AE591E00E945D0761E080E00E94BE
:100FC00044068BE691E00E945D0763EF71E086EED8
:100FD00093E00E94C50760E177E280E090E00E9424
:100FE000B10261E080E10E9422020E943C0685E09D
:100FF00090E090930101809300010895CF93DF93D7
:101000006330710508F45BC0EC018881082E000C88
:10101000990B0E94AC14815691098331910508F017
:101020004EC0FC01EA5EF74F0C94C41241085F0801
:101030005F085D085F0829085F085F085F082D08E2
:101040005F085F084C085B0859085F085F085F0885
:10105000570882E0DF91CF9108958981082E000C16
:10106000990B0E94AC148136910559F18A81082EA2
:10107000000C990B0E94AC148E36910521F187E08B
:10108000E9CF8981082E000C990B0E94AC1480379F
:101090009105D9F088E0DECF8A81082E000C990BEB
:1010A0000E94AC148237910591F085E0D3CF89E09E
:1010B000D1CF8AE0CFCF8BE0CDCF8CE0CBCF80E01B
:1010C000C9CF81E0C7CF86E0C5CF84E0C3CF83E03E
:1010D000C1CF85ED8093BC008091920290919302E4
:1010E000A0919402B09195020796A11DB11D23E035
:1010F000B695A795979587952A95D1F72091BC002D
:1011000024FD03C0109290020895409192025091E4
:1011100093026091940270919502452B462B472BC8
:1011200069F30097A105B10541F02AE22A95F1F78C
:1011300000C00197A109B109E1CF809191020C94FF
:101140006F042F923F924F925F926F927F928F9295
:101150009F92AF92BF92CF92DF92EF92FF920F9346
:101160001F93CF93DF93CDB7DEB7A8970FB6F89450
:10117000DEBF0FBECDBF98A78FA34B011A018AE037
:10118000ECE7F1E0DE01119601900D928A95E1F70E
:101190007A01412C512C32010FA118A50C5F1F4F71
:1011A0001C8F0B8F0FA118A50B5F1F4F18A30F8F5C
:1011B0000FA118A50D5F1F4F1AA309A30FA118A512
:1011C0000E5F1F4F1CA30BA30FA118A50F5F1F4F8E
:1011D0001EA30DA3D4018C91882309F476C1F101DB
:1011E0008081882309F471C1BE016F5F7F4FC40104
:1011F0000E94CD14880E991EE80EF91ED4013C9170
:10120000332341F3F40131966F01C818D9082191B5
:101210003217D1F3880D991DFC018081893509F4BD
:10122000B4C0BCF58A3209F48EC03CF48701813227
:1012300009F49FC010E000E094C0843409F4EAC0CF
:101240008D34C1F7D7018C9180538A3008F0B3C038
:10125000B3E0CB16D10408F4AAC0E218F308C70122
:10126000A8960FB6F894DEBF0FBECDBFDF91CF9129
:101270001F910F91FF90EF90DF90CF90BF90AF90B4
:101280009F908F907F906F905F904F903F902F90A6
:1012900008958D3609F4C2C054F4A60169A17AA15B
:1012A000883641F6C7010E9482018C015AC08337FB
:1012B00009F4B8C08A3709F0BDCFF1E0CF16D104E8
:1012C00009F0C0C0D7018C918B3209F4AFC08D32C8
:1012D00009F0B1C044244A94542C320142E050E059
:1012E000BE016F5E7F4F87010F5F1F4FC8010E94D5
:1012F00082010196080F191F42E050E0BE01655FB0
:101300007F4FC8010E948201FC01298930E0ACE3D3
:10131000B0E00E9463126F8B788F898F9A8F2B8534
:10132000DC01CB01820F911DA11DB11D9C01AD01FE
:10133000C301B2010E9472122B013C010E0F1F1F4C
:10134000021913090EC08701F8018191882311F059
:1013500028130CC00E191F090F5F1F4FFFEFCF1A84
:10136000DF0A0115110509F045C077CF8F01ECCFD9
:101370008F01F8018191882311F02817C9F30E1904
:101380001F092FEFC21AD20AECCF34E0C316D104E2
:1013900050F083E0C81AD1088C0C9D1CEC0CFD1C8D
:1013A00043E0C42ED12CA6016FA178A57BCFA60166
:1013B0006DA17EA177CFE4E0CE16D10408F04DCF29
:1013C000F1E0CF16D104E9F4F701AF014F5F5F4FB1
:1013D0008081281314C08F010E191F0903301105D5
:1013E00008F43BCFB801C7010E94FE07AFA1B8A522
:1013F00011968C938C0C9D1CE00EF11EEBCEFA0125
:10140000E4CFB601C7010E94FE07EFA1F8A58183D2
:101410008601A7CFA6016BA17CA144CFA6016B8D4D
:101420007C8D40CFA6016F8D78A13CCF412C512CF3
:101430003201439453CF8F7D8A3509F00ECF01E0FE
:1014400010E0D8CF98E0692E712C00E110E0512C0B
:10145000412C96E0969DB001979D700D1124665524
:101460007F4F46E050E0CE010B960E94F211AB8414
:10147000BC8444E050E0B501C7010E94041200970B
:1014800079F44D845E846F847888C5010E94FB11D5
:101490008C01892B09F065CF412C512C320161CF91
:1014A00097FD11C02301AFEF4A1A5A0A3801641898
:1014B000750876946794640C751C4016510648F2C2
:1014C00010E000E0E9CF8301F1CFEFA1F8A5808122
:1014D0004281618190E00E94FE039C01A8E1B0E09E
:1014E0000E946312AFA1B8A513962C915B016C0109
:1014F000A20EB11CC11CD11CA6019501ACE3B0E049
:101500000E942112AFA1B8A514962C915B016C0129
:10151000A20EB11CC11CD11CA6019501ACE3B0E028
:101520000E9421124B015C01AFA1B8A515964C9108
:10153000042F10E030E020E00B8F1C8F2D8F3E8FAA
:10154000ACE3B0E0A30192010E9421120B8D1C8D2F
:101550002D8D3E8D061B170B280B390BB901A801E9
:10156000480D591D6A1D7B1DCE0141960E949406AF
:1015700086E0FE017196DE011B9601900D928A9520
:10158000E1F786E0FE013B96DE01519601900D9257
:101590008A95E1F786E0FE017196AFA1B8A50190AA
:1015A0000D928A95E1F759CE1F920F920FB60F92C6
:1015B00011242F933F938F939F93AF93BF93809169
:1015C000660290916702A0916802B0916902309121
:1015D000610223E0230F2D3758F50196A11DB11D9F
:1015E000209361028093660290936702A093680241
:1015F000B09369028091620290916302A0916402AB
:10160000B09165020196A11DB11D80936202909375
:101610006302A0936402B0936502BF91AF919F9162
:101620008F913F912F910F900FBE0F901F901895A3
:1016300026E8230F0296A11DB11DD2CF1F920F9253
:101640000FB60F9211242F933F934F935F936F9395
:101650007F938F939F93AF93BF93EF93FF938AEB07
:1016600092E00E946E03FF91EF91BF91AF919F9125
:101670008F917F916F915F914F913F912F910F903B
:101680000FBE0F901F9018951F920F920FB60F92DA
:1016900011242F938F939F93EF93FF93E091CA02AE
:1016A000F091CB028081E091D002F091D10282FDD5
:1016B0001BC090818091D3028F5F8F732091D402E1
:1016C000821741F0E091D302F0E0E654FD4F958F90
:1016D0008093D302FF91EF919F918F912F910F9063
:1016E0000FBE0F901F9018958081F4CF1F920F921C
:1016F0000FB60F9211242F933F934F935F936F93E5
:101700007F938F939F93AF93BF93EF93FF938091BA
:10171000B900887F803609F44AC0F0F5883209F4B0
:10172000A7C018F5803109F49BC0B8F4882309F4E8
:10173000F9C0883009F494C0FF91EF91BF91AF9147
:101740009F918F917F916F915F914F913F912F91D9
:101750000F900FBE0F901F901895883109F488C024
:10176000803251F780938E0214C0803409F49DC0FA
:1017700040F48033B9F38833F9F680938E0285EC18
:10178000B0C0803509F485C0883509F496C0883426
:1017900099F60E946908D0CF883909F48CC038F5D1
:1017A000883729F050F4883611F0803729F683E025
:1017B000809390021092570257C0883809F47BC07A
:1017C000803919F0803809F0B7CF80915702803204
:1017D00008F071C0E091570281E08E0F80935702AC
:1017E0008091BB00F0E0E95CFD4F80833DC0803B11
:1017F00039F0E0F4803A09F479C0883A09F09CCFD6
:1018000084E0809390021092360210923502E091AB
:101810005A02F0915B0209958091350281110FC047
:1018200081E0809335021092150209C0803C09F4D2
:10183000A6CF883C09F4A3CF883B09F07DCFE09187
:10184000360281E08E0F80933602F0E0EB5EFD4FB2
:1018500080818093BB00909136028091350229C02F
:1018600080916B028093BB0085EC8093BC0064CFB9
:1018700090918D0280918C02981758F5E0918D021D
:1018800081E08E0F80938D02F0E0E459FD4F80815E
:10189000E9CFE0918D0281E08E0F80938D028091DF
:1018A000BB00F0E0E459FD4F808390918D02809160
:1018B0008C029817C8F285E8D8CFE0918D0281E0BC
:1018C0008E0F80938D028091BB00F0E0E459FD4FB4
:1018D000808380918F0281115CCF81E080936A02C6
:1018E00084EA8093BC001092900226CF85EC80930E
:1018F000BC001092900280915702803230F4E09147
:101900005702F0E0E95CFD4F10826091570270E0F1
:10191000E0915802F091590287E392E00995109204
:1019200057020ACF10928E0234CF1092BD0210924D
:10193000BC0288EE93E0A0E0B0E08093BE029093FA
:10194000BF02A093C002B093C10224E231E0309301
:10195000BB022093BA0225EC30E03093C7022093FB
:10196000C60224EC30E03093C9022093C80220EC78
:1019700030E03093CB022093CA0221EC30E0309368
:10198000CD022093CC0222EC30E03093CF022093A2
:10199000CE0226EC30E03093D1022093D002109298
:1019A000D3021092D4021092D5021092D602109255
:1019B0005A031092590380935B0390935C03A093A6
:1019C0005D03B0935E0386E391E0909358038093A8
:1019D00057031092E7031092E6031092E903109266
:1019E000E8031092EB031092EA0350E040E063EF4B
:1019F00071E086EE93E00E949A071092DA0310924B
:101A0000D90382E591E09093D8038093D7038EE3C6
:101A10008093E10380E68093E20380E18093E30317
:101A200082E08093E40393E09093D4038093D50302
:101A300084E08093D60384ED93E09093D303809366
:101A4000D2031092650310926903109268031092FA
:101A50006A0388E491E09093640380936303EFE763
:101A6000F3E01082148213821582369683E0EB3BFA
:101A7000F807B9F786E091E09093C6038093C50319
:101A800082E091E09093C8038093C70384E0809341
:101A9000C9038093CA038AE091E09093C4038093C2
:101AA000C3038AE090E09093CC038093CB0384EF50
:101AB00091E09093CE038093CD031092D1031092C6
:101AC000D0031092BF031092C0031092C103109272
:101AD000C2031092CF030895CF93DF93CDB7DEB743
:101AE000A8970FB6F894DEBF0FBECDBF789484B52B
:101AF000826084BD84B5816084BD85B5826085BD0A
:101B000085B5816085BD80916E00816080936E0097
:101B10001092810080918100826080938100809189
:101B2000810081608093810080918000816080933A
:101B300080008091B10084608093B1008091B000FA
:101B400081608093B00080917A00846080937A00F5
:101B500080917A00826080937A0080917A0081601F
:101B600080937A0080917A00806880937A00109246
:101B7000C10060E08FE00E94500261E081E10E94BC
:101B8000500261E08FEC97E00E94500261E08EE02D
:101B90000E945002E091CA02F091CB0282E0808361
:101BA000E091C602F091C7021082E091C802F09164
:101BB000C9028FEC80831092D202E091CE02F091A4
:101BC000CF0286E08083E091CC02F091CD0280814B
:101BD00080618083E091CC02F091CD0280818860A9
:101BE0008083E091CC02F091CD0280818068808377
:101BF000E091CC02F091CD0280818F7D80831092A4
:101C00005D0210925C02109297021092B9020E943B
:101C100051048EEE92E090935B0280935A028FEE15
:101C200092E090935902809358021092DB038091C6
:101C3000E403823018F098E09093DB038093DF0395
:101C40001092E00362E370E080E090E00E94B10255
:101C50008091DB0380620E94250665E070E080E0F1
:101C600090E00E94B1028091DB0380620E94250611
:101C700065E070E080E090E00E94B1028091DB03BB
:101C800080620E94250684E08093DC038CE00E9441
:101C900025060E943C0682E08093DD0386E00E94D8
:101CA000250660E080E00E9477066FEF88E00E94E2
:101CB000770660E281E00E9477066FEF84E00E9481
:101CC00077066FEF83E00E9477066FEF82E00E9455
:101CD00077066FEF84E00E94770660E083E00E9461
:101CE000770660E082E00E9477060E943C06009141
:101CF000D2031091D30360E0F80181810E94500269
:101D000060E0F80180810E94500260E0F801828169
:101D10000E94500240E050E0BA01CE0181960E943C
:101D2000940640E250E06FE171E0CE0101960E941E
:101D3000121246E851E0BE016F5F7F4FCE018196DF
:101D40000E94A10840E250E066E171E0CE010196F8
:101D50000E94121242E951E0BE016F5F7F4FCE0137
:101D600081960E94A1080091D2031091D30360E0F4
:101D7000F80182810E94220261E0F80182810E94C2
:101D8000500260E0F80181810E94220261E0F801C6
:101D900081810E94500261E0F80180810E9450021E
:101DA00061E0F80182810E9422028BE090E00197BD
:101DB000F1F740E06EEBC8010E9431072EA11AE056
:101DC000822F612F0E948212682F660F680F660FA4
:101DD000620F40E08091D2039091D3030E943107BB
:101DE0002DA1822F612F0E948212682F660F680F2B
:101DF000660F620F40E08091D2039091D3030E945E
:101E000031072CA1822F612F0E948212682F660F4A
:101E1000680F660F620F40E08091D2039091D30368
:101E20000E9431072BA1822F612F0E948212682FFE
:101E3000660F680F660F620F40E08091D2039091A9
:101E4000D3030E9431072AA1822F612F0E948212A0
:101E5000682F660F680F660F620F40E08091D20313
:101E60009091D3030E94310789A14BA16AA190E010
:101E70000E94FE03069667E070E00E948E12682FB3
:101E8000811101C067E040E08091D2039091D303BB
:101E90000E94310729A1822F6AE00E948212682FD6
:101EA000660F680F660F620F40E08091D203909139
:101EB000D3030E94310740E060E08091D20390910B
:101EC000D3030E943107E091D203F091D30360E085
:101ED00082810E9422028BE090E00197F1F7412C71
:101EE000512C3201439445E0A42EB12C1AA219A220
:101EF0001CA21BA21EA21DA246E050E06BE971E0ED
:101F0000CE0181960E949A078AEB92E00E944E03CE
:101F10001816190634F48AEB92E00E942C030E94F2
:101F2000CF07F1E4F0937C0080917A008064809385
:101F30007A0080917A0086FDFCCF809178009091A4
:101F4000790061E08EE00E94220281E08093CF035D
:101F50008FB7F894409166025091670260916802D1
:101F6000709169028FBF8091BF039091C003A091CF
:101F7000C103B091C203481B590B6A0B7B0B8091C4
:101F8000CB039091CC03B0E0A0E084179507A6079F
:101F9000B70708F094C110E08091C903181760F4E6
:101FA000E091C503F091C603E10FF11D62E080816D
:101FB0000E9450021F5FF0CF312C8091CA03381667
:101FC00008F061C0E32CF12CE091C703F091C80345
:101FD000EE0DFF1D61E080810E945002E091C70379
:101FE000F091C803EE0DFF1D60E080810E94220287
:101FF000D301C201032C04C0880F991FAA1FBB1F65
:102000000A94D2F74C016C01C094D094212C809199
:10201000C903281608F5022D10E0E091C503F091E0
:10202000C603E00FF11F80810E94F9010C5F1F4F72
:10203000000F111FF801ED59FC4F892B41F48081ED
:10204000918188299929918380832394E0CF80818D
:1020500091818C219D21F7CFE091C703F091C803B6
:10206000EE0DFF1D61E080810E9422028091C70376
:102070009091C803E80EF91E60E0F70180810E948C
:10208000500233949ACF03E613E07801F701878D6D
:1020900090A1892B31F4148E8FEF9FEF968F858F4F
:1020A00011A296E0E90EF11CEFE9EE16E3E0FE0660
:1020B00069F7D12C8091C903D81608F053C0C12C00
:1020C0008D2C912C880C991CC40185599C4F4C0176
:1020D0002091CA03C21608F043C0F40160817181E7
:1020E0000C2C02C0769567950A94E2F7D29E900177
:1020F00011242C0D311DE3E6F3E080E0458D568D73
:102100002417350709F447C18F5F36968A30B1F737
:1021100060FF24C0E3E6F3E090E080E0448D4111ED
:1021200018C0E091C303F091C403E20FF31F408194
:1021300056E0589FF001599FF00D1124ED59FC4FC6
:10214000448F368F258F10A2178E61E00E941201F6
:1021500005C0019636968A30910501F7C394B8CF31
:10216000D394A8CF80E0F80191A19111892F0A5F43
:102170001F4FE016F106B9F79FB7F8944091660239
:102180005091670260916802709169029FBF40930D
:10219000BF035093C0036093C1037093C2038823AD
:1021A00009F48DC080918403882309F488C080914C
:1021B000820390918303019709F081C080917F038E
:1021C00080936002833209F459C01A8219821C82FA
:1021D0001B821E821D828FA318A6BE01695D7F4FE0
:1021E000CE0101960E94C507E980FA80E114F1044E
:1021F00019F10D811E8101151105F1F08091EA039D
:102200009091EB03080F191FB80186EE93E00E942E
:102210007207882389F02091E6033091E7038091CB
:10222000EA039091EB03B701820F931F0E94C6143B
:102230001093EB030093EA0360E080E00E94440601
:1022400082EA91E00E945D0780916002882391F00C
:1022500080910001909101019C012F5F3F4F3093CD
:1022600001012093000161E00E94440683EB91E0AC
:102270000E945D07CE0101960E946A07809160026C
:10228000833209F09AC02091EA033091EB038DA1CB
:102290009EA128173907E1F48091E6039091E703A6
:1022A00069A17AA1009709F478C06115710569F4F4
:1022B000232B09F480C0FC01808190E079C010924A
:1022C000CF031092600280E080CF0E94BD1470C0E6
:1022D00080915E0290915F02029771F10E943C062C
:1022E00060E080E00E94440685EB91E00E945D077B
:1022F00061E080E00E94440686EC91E00E945D0768
:1023000063EF71E086EE93E00E94C50768E873E131
:1023100080E090E00E94B1020E943C06B092010170
:10232000A092000180915E0290915F0201969093CD
:102330005F0280935E0241C00E943C0660E080E044
:102340000E9444064CE050E066ED71E087ED93E0BA
:102350000E94F00261E080E00E94440640E150E00B
:1023600063EE71E087ED93E00E94F00261E081E1AD
:102370000E94220264EF71E080E090E00E94B102CE
:1023800060E081E10E94220264EF71E080E090E071
:102390000E94B102D3CF6170D9CE6115710559F099
:1023A000232B49F0FB01808190E091958195910963
:1023B000892B09F08DCF0E94CF07CE0181960E9414
:1023C0006A0780E090E0892B09F490CD0E945A03BF
:1023D000882309F48BCD0E94000088CD86EE93E01F
:1023E0000C946A07FB01DC0102C005900D9241507C
:1023F0005040D8F70895FC0105900020E9F780953A
:1024000090958E0F9F1F0895FB01DC0141505040B5
:1024100030F08D910590801919F40020B9F7881BD0
:10242000990B0895FB01DC014150504048F00590A4
:102430000D920020C9F701C01D9241505040E0F7B5
:1024400008950E946312A59F900DB49F900DA49FC4
:10245000800D911D112408952F923F924F925F920B
:102460006F927F928F929F92AF92BF92CF92DF92A4
:10247000EF92FF920F931F93CF93DF93CDB7DEB709
:10248000CA1BDB0B0FB6F894DEBF0FBECDBF09949D
:102490002A88398848885F846E847D848C849B84F4
:1024A000AA84B984C884DF80EE80FD800C811B8102
:1024B000AA81B981CE0FD11D0FB6F894DEBF0FBE31
:1024C000CDBFED010895A29FB001B39FC001A39FAE
:1024D000700D811D1124911DB29F700D811D11245D
:1024E000911D0895DB018F939F930E942112BF914C
:1024F000AF91A29F800D911DA39F900DB29F900D53
:1025000011240895991B79E004C0991F961708F0CB
:10251000961B881F7A95C9F780950895AA1BBB1B47
:1025200051E107C0AA1FBB1FA617B70710F0A61BD3
:10253000B70B881F991F5A95A9F780959095BC01F4
:10254000CD010895A1E21A2EAA1BBB1BFD010DC0EF
:10255000AA1FBB1FEE1FFF1FA217B307E407F50753
:1025600020F0A21BB30BE40BF50B661F771F881F2F
:10257000991F1A9469F760957095809590959B01C5
:10258000AC01BD01CF010895EE0FFF1F0590F4913E
:10259000E02D09940F931F93CF93DF938230910521
:1025A00010F482E090E0E091EE03F091EF0330E070
:1025B00020E0B0E0A0E0309799F42115310509F44E
:1025C0004AC0281B390B24303105D8F58A819B81FC
:1025D0006115710589F1FB0193838283FE0111C0AE
:1025E000408151810281138148175907E0F0481753
:1025F000590799F4109761F012960C93129713965D
:102600001C933296CF01DF91CF911F910F910895C6
:102610000093EE031093EF03F4CF2115310551F031
:102620004217530738F0A901DB019A01BD01DF0110
:10263000F801C1CFEF01F9CF9093EF038093EE0340
:10264000CDCFFE01E20FF31F819391932250310908
:1026500039832883D7CF2091EC033091ED03232BCE
:1026600041F420911C0130911D013093ED03209322
:10267000EC0320911A0130911B012115310541F421
:102680002DB73EB740911E0150911F01241B350B01
:10269000E091EC03F091ED03E217F307A0F42E1B99
:1026A0003F0B2817390778F0AC014E5F5F4F2417B6
:1026B000350748F04E0F5F1F5093ED034093EC0336
:1026C000819391939FCFF0E0E0E09CCFCF93DF9395
:1026D0000097E9F0FC01329713821282A091EE0379
:1026E000B091EF03ED0130E020E01097A1F42081DC
:1026F0003181820F931F2091EC033091ED03281755
:10270000390709F061C0F093ED03E093EC03DF912A
:10271000CF910895EA01CE17DF07E8F54A815B8182
:102720009E0141155105B1F7E901FB83EA83499107
:102730005991C40FD51FEC17FD0761F48081918179
:102740000296840F951FE901998388838281938182
:102750009B838A83F0E0E0E012968D919C91139721
:102760000097B9F52D913C911197CD010296820FFA
:10277000931F2091EC033091ED032817390739F6A8
:10278000309751F51092EF031092EE03B093ED03E2
:10279000A093EC03BCCFD383C28340815181840FCB
:1027A000951FC817D90761F44E5F5F4F88819981E3
:1027B000480F591F518340838A819B819383828371
:1027C0002115310509F0B0CFF093EF03E093EE034C
:1027D0009ECFFD01DC01C0CF13821282D7CFB0E0C3
:1027E000A0E0E5EFF3E10C942E128C01009751F478
:1027F000CB010E94CA128C01C801CDB7DEB7E0E15F
:102800000C944A12FC01E60FF71F9C01225031097B
:10281000E217F30708F49DC0D901CD91DC9111971F
:10282000C617D70798F0C530D10530F3CE0104970D
:102830008617970708F3C61BD70B2297C193D1932E
:102840006D937C93CF010E946613D6CF5B01AC1AC7
:10285000BD0A4C018C0E9D1EA091EE03B091EF03BA
:10286000512C412CF12CE12C109731F58091EC0387
:102870009091ED038815990509F05CC0461657063E
:1028800008F058C080911A0190911B01009741F403
:102890008DB79EB740911E0150911F01841B950B6F
:1028A000E817F90708F055C0F093ED03E093EC0347
:1028B000F90171836083A0CF8D919C91119712963D
:1028C0006C90129713967C901397A815B90559F53B
:1028D0006C0142E0C40ED11CCA14DB0420F1AC012F
:1028E0004A195B09DA011296159780F062827382A9
:1028F00051834083D9016D937C93E114F10471F00D
:10290000D7011396FC93EE93129776CF22968C0FF5
:102910009D1FF90191838083F301EFCFF093EF03C3
:10292000E093EE0369CF4816590608F42C017D01A7
:10293000D3019ACFCB010E94CA127C01009749F0C3
:10294000AE01B8010E94B414C8010E946613870149
:1029500053CF10E000E050CF9111089581548A5177
:1029600008F4805E855A0895FB01DC0102C00190E5
:102970000D9241505040D8F70895FB01DC018D9134
:10298000019080190110D9F3990B0895FB01DC0126
:1029900001900D920020E1F70895DC015D9155232F
:1029A00031F0FB01019005160110E1F7B9F78095B0
:1029B00090958A0F9B1F089510E0C4ECD0E004C0EE
:1029C000FE010E94C4122196C53CD107C9F7F894B4
:0229D000FFCF37
:1029D2000500090A0B0C050607083738394134355A
:1029E2003642313233432A3023440000F003800060
:1029F200000000009003F0021D03DD034E032C03D0
:102A0200400300000000CE05A105910677059A0556
:102A12008705780500000000E302E702EB020000F0
:102A220000006006F0029106FD03436F7272656357
:102A3200742050617373776F7264004163636573CE
:102A420073204772616E7465643A29002A21594DD8
:102A520044686D737A004D61792020322032303221
:102A6200340032323A35313A32330031323334358E
:102A7200360054616B696E672070617373776F7291
:102A8200643A00230020496E636F7272656374209A
:102A92005061737320004163636573732044656EF4
:102AA20069656421210020202020414C4552542197
:102AB2002121002020486F6D65204C6F636B656497
:042AC20021202000AF
:00000001FF
