:020000040000FA
:100000000C9458000C9480000C9480000C94800098
:100010000C9480000C9480000C9480000C94800060
:100020000C9480000C9480000C9480000C94800050
:100030000C9480000C9480000C9480000C94800040
:100040000C94E3030C9480000C9480000C948000CA
:100050000C9480000C9480000C9480000C94800020
:100060000C942D040C948000000000002500280052
:100070002B00040404040404040402020202020229
:10008000030303030303010204081020408001025C
:1000900004081020010204081020000000080002DB
:1000A00001000003040700000000000000004C05F0
:1000B00011241FBECFEFD8E0DEBFCDBF11E0A0E01E
:1000C000B1E0E6ECFCE002C005900D92A035B1076E
:1000D000D9F722E0A0E5B1E001C01D92AB32B20732
:1000E000E1F710E0C8E5D0E004C02197FE010E94CE
:1000F0005B06C735D107C9F70E946C050C946106F1
:100100000C94000090E0FC01E656FF4F2491FC01A6
:10011000EA57FF4F3491FC01EE58FF4FE491EE2374
:10012000C9F0222339F0233001F1A8F4213019F16C
:10013000223029F1F0E0EE0FFF1FE859FF4FA591A3
:10014000B4918FB7F894EC91611126C030953E239D
:100150003C938FBF08952730A9F02830C9F0243090
:1001600049F7809180008F7D03C0809180008F7758
:1001700080938000DFCF84B58F7784BDDBCF84B5DB
:100180008F7DFBCF8091B0008F778093B000D2CF6E
:100190008091B0008F7DF9CF3E2BDACF3FB7F89436
:1001A00080910F0290911002A0911102B091120261
:1001B00026B5A89B05C02F3F19F00196A11DB11DC2
:1001C0003FBFBA2FA92F982F8827BC01CD01620FFE
:1001D000711D811D911D42E0660F771F881F991FB9
:1001E0004A95D1F708958F929F92AF92BF92CF9286
:1001F000DF92EF92FF924B015C010E94CE006B01F7
:100200007C010E94CE006C197D098E099F09683E11
:10021000734081059105A8F321E0821A9108A10895
:10022000B10888EEC80E83E0D81EE11CF11C8114D1
:100230009104A104B10429F7FF90EF90DF90CF90D3
:10024000BF90AF909F908F90089508950895AF92BA
:10025000BF92CF92DF92EF92FF920F931F93CF93B3
:10026000DF936C017B018B01040F151FEB015E0115
:10027000AE18BF08C017D10759F06991D601ED91AA
:10028000FC910190F081E02DC6010995892B79F749
:10029000C501DF91CF911F910F91FF90EF90DF90FB
:1002A000CF90BF90AF900895089520919101260FAF
:1002B0003327331F21323105ECF42091DA01FC01A0
:1002C00090E080E0243069F082E00895A0919101EF
:1002D0002191AC014F585E4FA40FB52FB11D2C9347
:1002E0000196861798F380919101680F60939101B0
:1002F00080E0089581E008951092DA0181E0809312
:10030000D9011092B40161E082E10E94820061E0B3
:1003100083E10E948200E9EBF0E080818E7F8083A0
:1003200080818D7F808388E48093B80085E480930A
:10033000BC000895CF93DF9391E0909370018823E0
:10034000B9F0C091B800D091BA008091BC008A7B0E
:100350008093BC0060E082E10E94820060E083E163
:100360000E9482000E947C01D093BA00C093B80022
:10037000DF91CF9108950895E091090280910802DC
:10038000E81730F4F0E0E05BFE4F808190E00895E4
:100390008FEF9FEF089590910902809108022FEF4F
:1003A0003FEF981748F4E92FF0E0E05BFE4F208123
:1003B00030E09F5F90930902C9010895809108027F
:1003C00090910902891B990B0895CF92DF92EF92C9
:1003D000FF920F931F93CF93DF937C01CB018A0190
:1003E0002091E001222389F0EB016B01C40ED51EA0
:1003F000CC15DD0569F06991D701ED91FC91019073
:10040000F081E02DC7010995F3CF642F0E945501BB
:10041000C801DF91CF911F910F91FF90EF90DF9076
:10042000CF900895CF93DF931F92CDB7DEB7698346
:100430002091E0012223F9F020910602203258F0A9
:1004400021E030E0FC013383228390E080E00F90D4
:10045000DF91CF91089580910702E82FF0E0EF51EE
:10046000FE4F998190838F5F8093070280930602ED
:1004700081E090E0ECCF61E0CE0101960E94550151
:10048000F7CFCF92DF92EF92FF920F931F93CF930C
:10049000DF93FC01C48121E02093E001C0930102BD
:1004A00010920702109206028385682B83E192E086
:1004B0000E941202D0910602D13208F092C00E942E
:1004C000CE006B017C018091DA01811165C082E070
:1004D0008093DA0181E08093D9018FEF8093D80176
:1004E0001092D701D093D601A1EEB1E0E6EBF1E096
:1004F00080E0D81385C01092B5018091B501CC0F72
:10050000C82BC093B5018091B401813009F07CC043
:100510001092B4010E94CE006B017C018091B50164
:100520008093BB008091DC019091DD01A091DE0100
:10053000B091DF01892B8A2B8B2B99F00E94CE0082
:100540000091DC011091DD012091DE013091DF018D
:100550006C197D098E099F090617170728073907A7
:10056000E0F18091BC0083FDD9CF85EC8093BC0085
:100570000E94CE006B017C018091DA01823009F487
:1005800045C08091D8018F3F61F18091D8018032C0
:1005900041F18091D80125C08091DC019091DD016D
:1005A000A091DE01B091DF01892B8A2B8B2B09F4FE
:1005B0008ACF0E94CE000091DC011091DD012091D4
:1005C000DE013091DF016C197D098E099F09061744
:1005D00017072807390708F076CF8091DB010E94C2
:1005E0009A0110920702109206021092E001DF9128
:1005F000CF911F910F91FF90EF90DF90CF900895D2
:100600009D9191938F5F75CF85EEB0CF8091DC0186
:100610009091DD01A091DE01B091DF01892B8A2B41
:100620008B2B09F4A9CF0E94CE000091DC01109120
:10063000DD012091DE013091DF016C197D098E0909
:100640009F09061717072807390708F095CFC5CF68
:1006500090E080E00895FC0101900020E9F73197D7
:10066000AF01481B590BBC018FE192E00C942701AC
:100670000F931F93CF938C01C62F0E9441026C2FC2
:100680006460C8010E9441026C2F6B7FC8010E9408
:10069000410283EC90E00197F1F7CF911F910F9108
:1006A00008950F931F93CF93DF938C01D62FC42F00
:1006B000607F642B0E94380380E1D89FB001112431
:1006C0006C2BC801DF91CF911F910F910C943803CF
:1006D00040E061E08FE192E00E9451038BE39FE1F3
:1006E0000197F1F70895CF93DF93CDB7DEB7289741
:1006F0000FB6F894DEBF0FBECDBF98E0E0E0F1E0AA
:10070000DE01119601900D929A95E1F790912702E2
:10071000981708F48FEF90E0880F991F21E030E0E0
:100720002C0F3D1F820F931FFC0160816F5F60687B
:1007300040E08FE192E028960FB6F894DEBF0FBE3E
:10074000CDBFDF91CF910C94510341E00E94510342
:1007500081E090E0089585ED8093BC008091DC01FC
:100760009091DD01A091DE01B091DF010796A11DFE
:10077000B11D23E0B695A795979587952A95D1F752
:100780002091BC0024FD03C01092DA01089540912D
:10079000DC015091DD016091DE017091DF01452B9C
:1007A000462B472B69F30097A105B10541F02AE2DA
:1007B0002A95F1F700C00197A109B109E1CF809115
:1007C000DB010C949A011F920F920FB60F92112425
:1007D0002F933F938F939F93AF93BF9380910B027F
:1007E00090910C02A0910D02B0910E0230910A027C
:1007F00023E0230F2D3758F50196A11DB11D20933D
:100800000A0280930B0290930C02A0930D02B09306
:100810000E0280910F0290911002A0911102B091EE
:1008200012020196A11DB11D80930F029093100238
:10083000A0931102B0931202BF91AF919F918F913B
:100840003F912F910F900FBE0F901F90189526E8A3
:10085000230F0296A11DB11DD2CF1F920F920FB68A
:100860000F9211242F933F934F935F936F937F9336
:100870008F939F93AF93BF93EF93FF938091B900B2
:10088000887F803609F44AC0F0F5883209F4A7C0A1
:1008900018F5803109F49BC0B8F4882309F4F9C035
:1008A000883009F494C0FF91EF91BF91AF919F916F
:1008B0008F917F916F915F914F913F912F910F9009
:1008C0000FBE0F901F901895883109F488C08032B0
:1008D00051F78093D80114C0803409F49DC040F4CE
:1008E0008033B9F38833F9F68093D80185ECB0C032
:1008F000803509F485C0883509F496C0883499F6A6
:100900000E94AB03D0CF883909F48CC038F5883702
:1009100029F050F4883611F0803729F683E080936F
:10092000DA011092B30157C0883809F47BC08039CE
:1009300019F0803809F0B7CF8091B301803208F008
:1009400071C0E091B30181E08E0F8093B30180917B
:10095000BB00F0E0ED56FE4F80833DC0803B39F098
:10096000E0F4803A09F479C0883A09F09CCF84E039
:100970008093DA011092920110929101E0910402A9
:10098000F091050209958091910181110FC081E0DC
:10099000809391011092710109C0803C09F4A6CFA7
:1009A000883C09F4A3CF883B09F07DCFE091920108
:1009B00081E08E0F80939201F0E0EF58FE4F80812E
:1009C0008093BB00909192018091910129C0809108
:1009D000B5018093BB0085EC8093BC0064CF9091FF
:1009E000D7018091D601981758F5E091D70181E0A1
:1009F0008E0F8093D701F0E0EA54FE4F8081E9CF5B
:100A0000E091D70181E08E0F8093D7018091BB00E8
:100A1000F0E0EA54FE4F80839091D7018091D60197
:100A20009817C8F285E8D8CFE091D70181E08E0F02
:100A30008093D7018091BB00F0E0EA54FE4F8083A1
:100A40008091D90181115CCF81E08093B40184EA67
:100A50008093BC001092DA0126CF85EC8093BC0015
:100A60001092DA018091B301803230F4E091B30149
:100A7000F0E0ED56FE4F10826091B30170E0E0911E
:100A80000202F091030283E991E009951092B3010B
:100A90000ACF1092D80134CFE3E1F2E01382128240
:100AA00088EE93E0A0E0B0E084839583A683B783CB
:100AB0008CE091E091838083EFE1F2E01382128277
:100AC0008EE191E09183808387E2848380E1818756
:100AD00082E0828713860895789484B5826084BD0D
:100AE00084B5816084BD85B5826085BD85B5816032
:100AF00085BD80916E00816080936E0010928100B0
:100B0000809181008260809381008091810081606A
:100B1000809381008091800081608093800080912B
:100B2000B10084608093B1008091B00081608093B7
:100B3000B00080917A00846080937A0080917A007E
:100B4000826080937A0080917A00816080937A003D
:100B500080917A00806880937A001092C100109290
:100B600009021092080210920702109206020E94D7
:100B70007C0185E291E0909305028093040286E275
:100B800091E09093030280930202109224028091DC
:100B90002902823018F098E0909324028093270273
:100BA00062E370E080E090E00E94F30060912A022E
:100BB0008FE192E00E94410268EE73E080E090E0F5
:100BC0000E94F30060E38FE192E00E943803CBE4DF
:100BD000D6E4CE010197F1F760E38FE192E00E9445
:100BE00038032197F1F760E38FE192E00E94380328
:100BF00083E592E00197F1F760E28FE192E00E94D5
:100C0000380360912402606240E08FE192E00E942C
:100C1000510384E08093250240E06CE08FE192E094
:100C20000E9451030E94680382E08093260240E004
:100C300066E08FE192E00E94510340E062E08FE1C4
:100C400092E00E9451038BE39FE10197F1F788E066
:100C500080932A0260E08FE192E00E944102C0E0AE
:100C6000D0E080E00E94730386E291E00E942B03B3
:100C700068EB7BE080E090E00E94F3000E94680354
:100C800080E00E94730384E391E00E942B0381E0E3
:100C90000E94730383E491E00E942B0368EB7BE0E6
:100CA00080E090E00E94F3000E9468032097C9F260
:100CB0000E940000D6CFEE0FFF1F0590F491E02DAB
:100CC0000994F894FFCF0000400014005400000085
:100CD00000001202E5012803BB01DE01CB01BC01CB
:100CE00000000000A50327012803540148656C6C2F
:100CF0006F2C20576F726C642100546869732069EF
:100D00007320616E204C43440053637265656E200E
:060D10005465737400003D
:107E0000112484B714BE81FFF0D085E080938100F7
:107E100082E08093C00088E18093C10086E0809377
:107E2000C20080E18093C4008EE0C9D0259A86E02C
:107E300020E33CEF91E0309385002093840096BBD3
:107E4000B09BFECF1D9AA8958150A9F7CC24DD24C4
:107E500088248394B5E0AB2EA1E19A2EF3E0BF2EE7
:107E6000A2D0813461F49FD0082FAFD0023811F036
:107E7000013811F484E001C083E08DD089C08234E0
:107E800011F484E103C0853419F485E0A6D080C0E4
:107E9000853579F488D0E82EFF2485D0082F10E0AE
:107EA000102F00270E291F29000F111F8ED06801E7
:107EB0006FC0863521F484E090D080E0DECF843638
:107EC00009F040C070D06FD0082F6DD080E0C81688
:107ED00080E7D80618F4F601B7BEE895C0E0D1E017
:107EE00062D089930C17E1F7F0E0CF16F0E7DF06D8
:107EF00018F0F601B7BEE89568D007B600FCFDCFD4
:107F0000A601A0E0B1E02C9130E011968C91119780
:107F100090E0982F8827822B932B1296FA010C0160
:107F200087BEE89511244E5F5F4FF1E0A038BF0790
:107F300051F7F601A7BEE89507B600FCFDCF97BE46
:107F4000E89526C08437B1F42ED02DD0F82E2BD052
:107F50003CD0F601EF2C8F010F5F1F4F84911BD097
:107F6000EA94F801C1F70894C11CD11CFA94CF0C13
:107F7000D11C0EC0853739F428D08EE10CD085E9AC
:107F80000AD08FE07ACF813511F488E018D01DD067
:107F900080E101D065CF982F8091C00085FFFCCF94
:107FA0009093C60008958091C00087FFFCCF809118
:107FB000C00084FD01C0A8958091C6000895E0E648
:107FC000F0E098E1908380830895EDDF803219F02E
:107FD00088E0F5DFFFCF84E1DECF1F93182FE3DFCA
:107FE0001150E9F7F2DF1F91089580E0E8DFEE27F6
:047FF000FF270994CA
:027FFE00040479
:00000001FF
