:020000040000FA
:100000000C9462000C948A000C948A000C948A0070
:100010000C948A000C948A000C948A000C948A0038
:100020000C948A000C948A000C948A000C948A0028
:100030000C948A000C948A000C948A000C948A0018
:100040000C94B9020C948A000C9429030C940303B9
:100050000C948A000C948A000C948A000C948A00F8
:100060000C945B030C948A0000000000240027001D
:100070002A000000000023002600290000000000E4
:10008000250028002B0004040404040404040202D4
:100090000202020203030303030301020408102007
:1000A0004080010204081020010204081020000012
:1000B0000008000201000003040700000000000027
:1000C0000000760411241FBECFEFD8E0DEBFCDBF05
:1000D00011E0A0E0B1E0ECEFFAE002C005900D9273
:1000E000A831B107D9F722E0A8E1B1E001C01D9223
:1000F000AF32B207E1F710E0C2E6D0E004C02197CA
:10010000FE010E947605C136D107C9F70E94A304FB
:100110000C947C050C940000833081F028F481302D
:1001200099F08230A9F008958730A9F08830C9F09D
:100130008430B1F4809180008F7D03C08091800075
:100140008F7780938000089584B58F7784BD08955C
:1001500084B58F7DFBCF8091B0008F778093B00006
:1001600008958091B0008F7DF9CF1F93CF93DF93D7
:10017000282F30E0F901E255FF4F8491F901E6564E
:10018000FF4FD491F901EA57FF4FC491CC23A9F056
:10019000162F81110E948C00EC2FF0E0EE0FFF1F54
:1001A000E458FF4FA591B4918FB7F894EC911111D9
:1001B00008C0D095DE23DC938FBFDF91CF911F91D4
:1001C0000895DE2BF8CFAF92BF92CF92DF92EF92DD
:1001D000FF920F931F93CF93DF936C017B018B01F1
:1001E000040F151FEB015E01AE18BF08C017D10741
:1001F00059F06991D601ED91FC910190F081E02DCB
:10020000C6010995892B79F7C501DF91CF911F911F
:100210000F91FF90EF90DF90CF90BF90AF90089537
:10022000FC01538D448D252F30E0842F90E0821BFC
:10023000930B541710F0CF96089501970895FC0181
:10024000918D828D981761F0A28DAE0FBF2FB11DD9
:100250005D968C91928D9F5F9F73928F90E0089531
:100260008FEF9FEF0895FC01918D828D981731F0EB
:10027000828DE80FF11D858D90E008958FEF9FEF3F
:100280000895FC01918D228D892F90E0805C9F4F15
:10029000821B91098F739927089582E991E00E944A
:1002A000410121E0892B09F420E0822F089580E0AC
:1002B00090E0892B29F00E944D0181110C940000DF
:1002C0000895FC01A48DA80FB92FB11DA35ABF4FEB
:1002D0002C91848D90E001968F739927848FA68945
:1002E000B7892C93A089B1898C91837080648C9399
:1002F000938D848D981306C00288F389E02D808148
:100300008F7D80830895EF92FF920F931F93CF9379
:10031000DF93EC0181E0888F9B8D8C8D98131AC040
:10032000E889F989808185FF15C09FB7F894EE8927
:10033000FF896083E889F989808183708064808384
:100340009FBF81E090E0DF91CF911F910F91FF90CF
:10035000EF900895F62E0B8D10E00F5F1F4F0F7377
:100360001127E02E8C8D8E110CC00FB607FCFACF32
:10037000E889F989808185FFF5CFCE010E9461016E
:10038000F1CFEB8DEC0FFD2FF11DE35AFF4FF08203
:100390009FB7F8940B8FEA89FB8980818062CFCF69
:1003A000CF93DF93EC01888D8823B9F0AA89BB89AC
:1003B000E889F9898C9185FD03C0808186FD0DC097
:1003C0000FB607FCF7CF8C9185FFF2CF808185FFB8
:1003D000EDCFCE010E946101E9CFDF91CF91089569
:1003E00020913F01260F3327331F21323105ECF4D2
:1003F00020916301FC0190E080E0243069F082E00C
:100400000895A0913F012191AC01415E5E4FA40F80
:10041000B52FB11D2C930196861798F380913F015B
:10042000680F60933F0180E0089581E0089508958A
:100430008FEF9FEF08958FEF9FEF08958091180140
:1004400090E09195819591090895CF93DF93CB0129
:10045000EA01642F0E94F001CE01DF91CF9108954F
:10046000CF93DF931F92CDB7DEB7698361E0CE01F2
:1004700001960E94F00181E090E00F90DF91CF9112
:10048000089590E080E008951F93CF93DF9385ED6A
:100490008093BC0080911B0190911C01A0911D01D3
:1004A000B0911E010796A11DB11D23E0B695A79539
:1004B000979587952A95D1F72091BC0024FD03C01C
:1004C0001092630152C040911B0150911C01609138
:1004D0001D0170911E01452B462B472B69F3009798
:1004E000A105B10541F02AE22A95F1F700C0019774
:1004F000A109B109E1CF80911A01C1E0C0931901AE
:10050000882399F1D091B8001091BA008091BC0075
:100510008A7B8093BC0060E082E10E94B50060E0CD
:1005200083E10E94B50010926301C09365011092AF
:10053000640161E082E10E94B50061E083E10E9414
:10054000B5008091B9008E7F8093B9008091B90089
:100550008D7F8093B90088E48093B80085E4809310
:10056000BC001093BA00D093B800DF91CF911F91D7
:1005700008951F920F920FB60F9211242F933F935D
:100580008F939F93AF93BF9380918E0190918F0132
:10059000A0919001B091910130918D0123E0230F42
:1005A0002D3758F50196A11DB11D20938D01809323
:1005B0008E0190938F01A0939001B093910180914F
:1005C000890190918A01A0918B01B0918C010196D3
:1005D000A11DB11D8093890190938A01A0938B0185
:1005E000B0938C01BF91AF919F918F913F912F91CB
:1005F0000F900FBE0F901F90189526E8230F0296BC
:10060000A11DB11DD2CF1F920F920FB60F921124D0
:100610002F933F934F935F936F937F938F939F930A
:10062000AF93BF93EF93FF9382E991E00E94610142
:10063000FF91EF91BF91AF919F918F917F916F91BA
:100640005F914F913F912F910F900FBE0F901F9090
:1006500018951F920F920FB60F9211242F938F931C
:100660009F93EF93FF93E091A201F091A30180810A
:10067000E091A801F091A90182FD1BC090818091B9
:10068000AB018F5F8F732091AC01821741F0E09135
:10069000AB01F0E0EE56FE4F958F8093AB01FF91DA
:1006A000EF919F918F912F910F900FBE0F901F9000
:1006B00018958081F4CF1F920F920FB60F921124DC
:1006C0002F933F934F935F936F937F938F939F935A
:1006D000AF93BF93EF93FF938091B900887F8036EB
:1006E00009F44AC0F0F5883209F4A5C018F5803144
:1006F00009F499C0B8F4882309F4F5C0883009F4E6
:1007000092C0FF91EF91BF91AF919F918F917F9197
:100710006F915F914F913F912F910F900FBE0F906E
:100720001F901895883109F486C0803251F7809364
:10073000620114C0803409F49BC040F48033B9F3E3
:100740008833F9F68093620185ECAEC0803509F4F8
:1007500083C0883509F494C0883499F60E94440215
:10076000D0CF883909F48AC038F5883729F050F499
:10077000883611F0803729F683E080936301109268
:10078000610155C0883809F479C0803919F0803882
:1007900009F0B7CF80916101803208F06FC0E0911D
:1007A000610181E08E0F809361018091BB00F0E0D8
:1007B000EF5BFE4F80833BC0803B39F0D0F4803A42
:1007C00009F477C0883A09F09CCF84E080936301F4
:1007D0001092400110923F01F0E0E0E00995809115
:1007E0003F0181110FC081E080933F0110921F01F2
:1007F00009C0803C09F4A8CF883C09F4A5CF883B08
:1008000009F07FCFE091400181E08E0F809340019D
:10081000F0E0E15EFE4F80818093BB00909140014B
:1008200080913F0129C0809188018093BB0085ECB5
:100830008093BC0066CF90918701809186019817C4
:1008400058F5E091870181E08E0F80938701F0E0F9
:10085000EA59FE4F8081E9CFE091870181E08E0F58
:10086000809387018091BB00F0E0EA59FE4F8083BE
:1008700090918701809186019817C8F285E8D8CFBA
:10088000E091870181E08E0F809387018091BB000A
:10089000F0E0EA59FE4F80838091650181115ECFBF
:1008A00081E08093640184EA8093BC00109263012C
:1008B00028CF85EC8093BC00109263018091610188
:1008C000803230F4E0916101F0E0EF5BFE4F108286
:1008D0006091610170E081E491E0F0E0E0E0099571
:1008E000109261010ECF1092620138CFE2E9F1E07F
:1008F0001382128288EE93E0A0E0B0E084839583B7
:10090000A683B78384E091E09183808385EC90E0B7
:100910009587848784EC90E09787868780EC90E0C9
:10092000918B808B81EC90E0938B828B82EC90E0BA
:10093000958B848B86EC90E0978B868B118E128E34
:10094000138E148E0895789484B5826084BD84B526
:10095000816084BD85B5826085BD85B5816085BDBA
:1009600080916E00816080936E0010928100809172
:1009700081008260809381008091810081608093FA
:100980008100809180008160809380008091B1001F
:1009900084608093B1008091B00081608093B0004A
:1009A00080917A00846080937A0080917A008260DE
:1009B00080937A0080917A00816080937A008091A0
:1009C0007A00806880937A001092C100E091A201C1
:1009D000F091A30182E08083E0919E01F0919F015C
:1009E0001082E091A001F091A1018FEC8083109220
:1009F000AA01E091A601F091A70186E08083E09131
:100A0000A401F091A501808180618083E091A4011F
:100A1000F091A501808188608083E091A401F0912C
:100A2000A501808180688083E091A401F091A501F7
:100A300080818F7D8083CAE9D0E0FE01249106E8A1
:100A400010E0F80184918823C9F090E0880F991F85
:100A5000FC01E859FF4FA591B491FC01E458FF4F08
:100A6000459154913FB7F8949C91822F809598239B
:100A70009C93FA019081892380833FBF9EEAE92EEF
:100A800090E0F92E20E0C22E20E0D22EF7018491D2
:100A9000FE01A490F801B490BB20F1F081110E94F6
:100AA0008C00EB2DF0E0EE0FFF1FEE58FF4FA591ED
:100AB000B4918C91A82281F041E050E062E171E0B4
:100AC00082E991E00E94E30042E050E064E171E0DD
:100AD00082E991E00E94E300C114D104B9F20E94BE
:100AE0004D01882399F20E940000D0CFEE0FFF1F26
:100AF0000590F491E02D0994F894FFCF00000000D8
:100B00008301E3001001D00141011F0133013100D5
:040B10000D0A0000CA
:107E0000112484B714BE81FFF0D085E080938100F7
:107E100082E08093C00088E18093C10086E0809377
:107E2000C20080E18093C4008EE0C9D0259A86E02C
:107E300020E33CEF91E0309385002093840096BBD3
:107E4000B09BFECF1D9AA8958150A9F7CC24DD24C4
:107E500088248394B5E0AB2EA1E19A2EF3E0BF2EE7
:107E6000A2D0813461F49FD0082FAFD0023811F036
:107E7000013811F484E001C083E08DD089C08234E0
:107E800011F484E103C0853419F485E0A6D080C0E4
:107E9000853579F488D0E82EFF2485D0082F10E0AE
:107EA000102F00270E291F29000F111F8ED06801E7
:107EB0006FC0863521F484E090D080E0DECF843638
:107EC00009F040C070D06FD0082F6DD080E0C81688
:107ED00080E7D80618F4F601B7BEE895C0E0D1E017
:107EE00062D089930C17E1F7F0E0CF16F0E7DF06D8
:107EF00018F0F601B7BEE89568D007B600FCFDCFD4
:107F0000A601A0E0B1E02C9130E011968C91119780
:107F100090E0982F8827822B932B1296FA010C0160
:107F200087BEE89511244E5F5F4FF1E0A038BF0790
:107F300051F7F601A7BEE89507B600FCFDCF97BE46
:107F4000E89526C08437B1F42ED02DD0F82E2BD052
:107F50003CD0F601EF2C8F010F5F1F4F84911BD097
:107F6000EA94F801C1F70894C11CD11CFA94CF0C13
:107F7000D11C0EC0853739F428D08EE10CD085E9AC
:107F80000AD08FE07ACF813511F488E018D01DD067
:107F900080E101D065CF982F8091C00085FFFCCF94
:107FA0009093C60008958091C00087FFFCCF809118
:107FB000C00084FD01C0A8958091C6000895E0E648
:107FC000F0E098E1908380830895EDDF803219F02E
:107FD00088E0F5DFFFCF84E1DECF1F93182FE3DFCA
:107FE0001150E9F7F2DF1F91089580E0E8DFEE27F6
:047FF000FF270994CA
:027FFE00040479
:00000001FF
